:1000000000400020C1000000000000001D010000B1
:1000100000000000000000000000000000000000E0
:1000200000000000000000000000000000000000D0
:1000300000000000000000000000000000000000C0
:1000400000000000000000000000000000000000B0
:1000500000000000000000000000000000000000A0
:100060000000000000000000000000000000000090
:100070000000000000000000000000000000000080
:100080000000000000000000000000000000000070
:100090000000000000000000000000000000000060
:1000A0000000000000000000000000000000000050
:1000B0000000000000000000000000000000000040
:1000C00000E8000028E000E8008025E000F80000DB
:1000D00022E000F800801FE000F000001CE0F0F7D4
:1000E00000A019E080F3058800E015E0EFF305803B
:1000F00000E011E000F000F800E00DE0BFF35F8FDA
:1001000000E009E0BFF34F8F00E005E0BFF36F8F21
:1001100000E001E0012005E0002003E00698063041
:10012000069070470021012800D101491820ABBE7C
:0401300026000200A3
:04000003000000C138
:00000001FF
