:1000000000400020C100000000000000D5000000FA
:1000100000000000000000000000000000000000E0
:1000200000000000000000000000000000000000D0
:1000300000000000000000000000000000000000C0
:1000400000000000000000000000000000000000B0
:1000500000000000000000000000000000000000A0
:100060000000000000000000000000000000000090
:100070000000000000000000000000000000000080
:100080000000000000000000000000000000000070
:100090000000000000000000000000000000000060
:1000A0000000000000000000000000000000000050
:1000B0000000000000000000000000000000000040
:1000C00000F0000004E0F0F700A001E0012005E0EE
:1000D000002003E0069806300690704700210128B2
:0C00E00000D101491820ABBE2600020030
:04000003000000C138
:00000001FF
